{
  "_format": "hh-sol-artifact-1",
  "contractName": "sendMessage",
  "sourceName": "contracts/SendMessages.sol",
  "abi": [
    {
      "inputs": [],
      "stateMutability": "nonpayable",
      "type": "constructor"
    },
    {
      "inputs": [],
      "name": "getMemos",
      "outputs": [
        {
          "components": [
            {
              "internalType": "string",
              "name": "name",
              "type": "string"
            },
            {
              "internalType": "string",
              "name": "message",
              "type": "string"
            },
            {
              "internalType": "uint256",
              "name": "timestamp",
              "type": "uint256"
            },
            {
              "internalType": "address",
              "name": "from",
              "type": "address"
            }
          ],
          "internalType": "struct sendMessage.Memo[]",
          "name": "",
          "type": "tuple[]"
        }
      ],
      "stateMutability": "view",
      "type": "function"
    },
    {
      "inputs": [
        {
          "internalType": "string",
          "name": "name",
          "type": "string"
        },
        {
          "internalType": "string",
          "name": "message",
          "type": "string"
        }
      ],
      "name": "messages",
      "outputs": [],
      "stateMutability": "nonpayable",
      "type": "function"
    },
    {
      "inputs": [],
      "name": "owner",
      "outputs": [
        {
          "internalType": "address",
          "name": "",
          "type": "address"
        }
      ],
      "stateMutability": "view",
      "type": "function"
    }
  ],
  "bytecode": "0x608060405234801561001057600080fd5b50336000806101000a81548173ffffffffffffffffffffffffffffffffffffffff021916908373ffffffffffffffffffffffffffffffffffffffff1602179055506108b7806100606000396000f3fe608060405234801561001057600080fd5b50600436106100415760003560e01c80634e95269614610046578063865c5172146100625780638da5cb5b14610080575b600080fd5b610060600480360381019061005b919061051b565b61009e565b005b61006a61021b565b6040516100779190610710565b60405180910390f35b6100886103fe565b60405161009591906106f5565b60405180910390f35b6001604051806080016040528086868080601f016020809104026020016040519081016040528093929190818152602001838380828437600081840152601f19601f82011690508083019250505050505050815260200184848080601f016020809104026020016040519081016040528093929190818152602001838380828437600081840152601f19601f8201169050808301925050505050505081526020014281526020013373ffffffffffffffffffffffffffffffffffffffff16815250908060018154018082558091505060019003906000526020600020906004020160009091909190915060008201518160000190805190602001906101a4929190610422565b5060208201518160010190805190602001906101c1929190610422565b506040820151816002015560608201518160030160006101000a81548173ffffffffffffffffffffffffffffffffffffffff021916908373ffffffffffffffffffffffffffffffffffffffff160217905550505050505050565b60606001805480602002602001604051908101604052809291908181526020016000905b828210156103f55783829060005260206000209060040201604051806080016040529081600082018054610272906107f6565b80601f016020809104026020016040519081016040528092919081815260200182805461029e906107f6565b80156102eb5780601f106102c0576101008083540402835291602001916102eb565b820191906000526020600020905b8154815290600101906020018083116102ce57829003601f168201915b50505050508152602001600182018054610304906107f6565b80601f0160208091040260200160405190810160405280929190818152602001828054610330906107f6565b801561037d5780601f106103525761010080835404028352916020019161037d565b820191906000526020600020905b81548152906001019060200180831161036057829003601f168201915b50505050508152602001600282015481526020016003820160009054906101000a900473ffffffffffffffffffffffffffffffffffffffff1673ffffffffffffffffffffffffffffffffffffffff1673ffffffffffffffffffffffffffffffffffffffff16815250508152602001906001019061023f565b50505050905090565b60008054906101000a900473ffffffffffffffffffffffffffffffffffffffff1681565b82805461042e906107f6565b90600052602060002090601f0160209004810192826104505760008555610497565b82601f1061046957805160ff1916838001178555610497565b82800160010185558215610497579182015b8281111561049657825182559160200191906001019061047b565b5b5090506104a491906104a8565b5090565b5b808211156104c15760008160009055506001016104a9565b5090565b60008083601f8401126104db576104da61085c565b5b8235905067ffffffffffffffff8111156104f8576104f7610857565b5b60208301915083600182028301111561051457610513610861565b5b9250929050565b600080600080604085870312156105355761053461086b565b5b600085013567ffffffffffffffff81111561055357610552610866565b5b61055f878288016104c5565b9450945050602085013567ffffffffffffffff81111561058257610581610866565b5b61058e878288016104c5565b925092505092959194509250565b60006105a8838361067c565b905092915050565b6105b981610787565b82525050565b6105c881610787565b82525050565b60006105d982610742565b6105e38185610765565b9350836020820285016105f585610732565b8060005b858110156106315784840389528151610612858261059c565b945061061d83610758565b925060208a019950506001810190506105f9565b50829750879550505050505092915050565b600061064e8261074d565b6106588185610776565b93506106688185602086016107c3565b61067181610870565b840191505092915050565b600060808301600083015184820360008601526106998282610643565b915050602083015184820360208601526106b38282610643565b91505060408301516106c860408601826106e6565b5060608301516106db60608601826105b0565b508091505092915050565b6106ef816107b9565b82525050565b600060208201905061070a60008301846105bf565b92915050565b6000602082019050818103600083015261072a81846105ce565b905092915050565b6000819050602082019050919050565b600081519050919050565b600081519050919050565b6000602082019050919050565b600082825260208201905092915050565b600082825260208201905092915050565b600061079282610799565b9050919050565b600073ffffffffffffffffffffffffffffffffffffffff82169050919050565b6000819050919050565b60005b838110156107e15780820151818401526020810190506107c6565b838111156107f0576000848401525b50505050565b6000600282049050600182168061080e57607f821691505b6020821081141561082257610821610828565b5b50919050565b7f4e487b7100000000000000000000000000000000000000000000000000000000600052602260045260246000fd5b600080fd5b600080fd5b600080fd5b600080fd5b600080fd5b6000601f19601f830116905091905056fea2646970667358221220291c3df2893f94b4e6ace6ed5da0fe37c14e4d0992cced8a9e72960ddbfc546164736f6c63430008070033",
  "linkReferences": {},
  "deployedLinkReferences": {}
}